{"address":"0xA20aa0968C555cf984B52D530586108856a0A134","bytecode":"0x608060405234801561001057600080fd5b5061131a806100206000396000f3fe60806040526004361061004a5760003560e01c806315a3966f1461004f5780631d19868814610078578063c56d786e146100a3578063d3f43c78146100bf578063f37e724e146100ea575b600080fd5b34801561005b57600080fd5b506100766004803603810190610071919061095d565b610113565b005b34801561008457600080fd5b5061008d61030e565b60405161009a91906109f4565b60405180910390f35b6100bd60048036038101906100b89190610a0f565b610313565b005b3480156100cb57600080fd5b506100d4610381565b6040516100e191906109f4565b60405180910390f35b3480156100f657600080fd5b50610111600480360381019061010c9190610a0f565b610386565b005b600082828101906101249190610c13565b905060005b815181101561030557600082828151811061014757610146610c5c565b5b602002602001015190506000816000015173ffffffffffffffffffffffffffffffffffffffff166370a08231896040518263ffffffff1660e01b81526004016101909190610c9a565b602060405180830381865afa1580156101ad573d6000803e3d6000fd5b505050506040513d601f19601f820116820180604052508101906101d19190610cca565b90508773ffffffffffffffffffffffffffffffffffffffff166374420f4c836000015160008a85604051602401610209929190610cf7565b6040516020818303038152906040527fa9059cbb000000000000000000000000000000000000000000000000000000007bffffffffffffffffffffffffffffffffffffffffffffffffffffffff19166020820180517bffffffffffffffffffffffffffffffffffffffffffffffffffffffff838183161783525050505060006040518563ffffffff1660e01b81526004016102a79493929190610d9f565b6000604051808303816000875af11580156102c6573d6000803e3d6000fd5b505050506040513d6000823e3d601f19601f820116820180604052508101906102ef9190610e91565b50505080806102fd90610f09565b915050610129565b50505050505050565b600081565b600082828101906103249190611064565b905060005b815181101561037957600082828151811061034757610346610c5c565b5b60200260200101519050610365816000015133888460200151610580565b50808061037190610f09565b915050610329565b505050505050565b600081565b6000828281019061039791906111ac565b905060005b81518110156105785760008282815181106103ba576103b9610c5c565b5b602002602001015190506000816000015173ffffffffffffffffffffffffffffffffffffffff166370a08231886040518263ffffffff1660e01b81526004016104039190610c9a565b602060405180830381865afa158015610420573d6000803e3d6000fd5b505050506040513d601f19601f820116820180604052508101906104449190610cca565b90508673ffffffffffffffffffffffffffffffffffffffff166374420f4c83600001516000338560405160240161047c929190610cf7565b6040516020818303038152906040527fa9059cbb000000000000000000000000000000000000000000000000000000007bffffffffffffffffffffffffffffffffffffffffffffffffffffffff19166020820180517bffffffffffffffffffffffffffffffffffffffffffffffffffffffff838183161783525050505060006040518563ffffffff1660e01b815260040161051a9493929190610d9f565b6000604051808303816000875af1158015610539573d6000803e3d6000fd5b505050506040513d6000823e3d601f19601f820116820180604052508101906105629190610e91565b505050808061057090610f09565b91505061039c565b505050505050565b6105fc848573ffffffffffffffffffffffffffffffffffffffff166323b872dd8686866040516024016105b5939291906111f5565b604051602081830303815290604052915060e01b6020820180517bffffffffffffffffffffffffffffffffffffffffffffffffffffffff8381831617835250505050610602565b50505050565b600061062d828473ffffffffffffffffffffffffffffffffffffffff1661069990919063ffffffff16565b905060008151141580156106525750808060200190518101906106509190611264565b155b1561069457826040517f5274afe700000000000000000000000000000000000000000000000000000000815260040161068b9190610c9a565b60405180910390fd5b505050565b60606106a7838360006106af565b905092915050565b6060814710156106f657306040517fcd7860590000000000000000000000000000000000000000000000000000000081526004016106ed9190610c9a565b60405180910390fd5b6000808573ffffffffffffffffffffffffffffffffffffffff16848660405161071f91906112cd565b60006040518083038185875af1925050503d806000811461075c576040519150601f19603f3d011682016040523d82523d6000602084013e610761565b606091505b509150915061077186838361077c565b925050509392505050565b6060826107915761078c8261080b565b610803565b600082511480156107b9575060008473ffffffffffffffffffffffffffffffffffffffff163b145b156107fb57836040517f9996b3150000000000000000000000000000000000000000000000000000000081526004016107f29190610c9a565b60405180910390fd5b819050610804565b5b9392505050565b60008151111561081e5780518082602001fd5b6040517f1425ea4200000000000000000000000000000000000000000000000000000000815260040160405180910390fd5b6000604051905090565b600080fd5b600080fd5b6000819050919050565b61087781610864565b811461088257600080fd5b50565b6000813590506108948161086e565b92915050565b600073ffffffffffffffffffffffffffffffffffffffff82169050919050565b60006108c58261089a565b9050919050565b6108d5816108ba565b81146108e057600080fd5b50565b6000813590506108f2816108cc565b92915050565b600080fd5b600080fd5b600080fd5b60008083601f84011261091d5761091c6108f8565b5b8235905067ffffffffffffffff81111561093a576109396108fd565b5b60208301915083600182028301111561095657610955610902565b5b9250929050565b6000806000806000608086880312156109795761097861085a565b5b600061098788828901610885565b9550506020610998888289016108e3565b94505060406109a9888289016108e3565b935050606086013567ffffffffffffffff8111156109ca576109c961085f565b5b6109d688828901610907565b92509250509295509295909350565b6109ee81610864565b82525050565b6000602082019050610a0960008301846109e5565b92915050565b60008060008060608587031215610a2957610a2861085a565b5b6000610a3787828801610885565b9450506020610a48878288016108e3565b935050604085013567ffffffffffffffff811115610a6957610a6861085f565b5b610a7587828801610907565b925092505092959194509250565b6000601f19601f8301169050919050565b7f4e487b7100000000000000000000000000000000000000000000000000000000600052604160045260246000fd5b610acc82610a83565b810181811067ffffffffffffffff82111715610aeb57610aea610a94565b5b80604052505050565b6000610afe610850565b9050610b0a8282610ac3565b919050565b600067ffffffffffffffff821115610b2a57610b29610a94565b5b602082029050602081019050919050565b600080fd5b600060208284031215610b5657610b55610b3b565b5b610b606020610af4565b90506000610b70848285016108e3565b60008301525092915050565b6000610b8f610b8a84610b0f565b610af4565b90508083825260208201905060208402830185811115610bb257610bb1610902565b5b835b81811015610bdb5780610bc78882610b40565b845260208401935050602081019050610bb4565b5050509392505050565b600082601f830112610bfa57610bf96108f8565b5b8135610c0a848260208601610b7c565b91505092915050565b600060208284031215610c2957610c2861085a565b5b600082013567ffffffffffffffff811115610c4757610c4661085f565b5b610c5384828501610be5565b91505092915050565b7f4e487b7100000000000000000000000000000000000000000000000000000000600052603260045260246000fd5b610c94816108ba565b82525050565b6000602082019050610caf6000830184610c8b565b92915050565b600081519050610cc48161086e565b92915050565b600060208284031215610ce057610cdf61085a565b5b6000610cee84828501610cb5565b91505092915050565b6000604082019050610d0c6000830185610c8b565b610d1960208301846109e5565b9392505050565b600081519050919050565b600082825260208201905092915050565b60005b83811015610d5a578082015181840152602081019050610d3f565b60008484015250505050565b6000610d7182610d20565b610d7b8185610d2b565b9350610d8b818560208601610d3c565b610d9481610a83565b840191505092915050565b6000608082019050610db46000830187610c8b565b610dc160208301866109e5565b8181036040830152610dd38185610d66565b9050610de260608301846109e5565b95945050505050565b600080fd5b600067ffffffffffffffff821115610e0b57610e0a610a94565b5b610e1482610a83565b9050602081019050919050565b6000610e34610e2f84610df0565b610af4565b905082815260208101848484011115610e5057610e4f610deb565b5b610e5b848285610d3c565b509392505050565b600082601f830112610e7857610e776108f8565b5b8151610e88848260208601610e21565b91505092915050565b600060208284031215610ea757610ea661085a565b5b600082015167ffffffffffffffff811115610ec557610ec461085f565b5b610ed184828501610e63565b91505092915050565b7f4e487b7100000000000000000000000000000000000000000000000000000000600052601160045260246000fd5b6000610f1482610864565b91507fffffffffffffffffffffffffffffffffffffffffffffffffffffffffffffffff8203610f4657610f45610eda565b5b600182019050919050565b600067ffffffffffffffff821115610f6c57610f6b610a94565b5b602082029050602081019050919050565b600060408284031215610f9357610f92610b3b565b5b610f9d6040610af4565b90506000610fad848285016108e3565b6000830152506020610fc184828501610885565b60208301525092915050565b6000610fe0610fdb84610f51565b610af4565b9050808382526020820190506040840283018581111561100357611002610902565b5b835b8181101561102c57806110188882610f7d565b845260208401935050604081019050611005565b5050509392505050565b600082601f83011261104b5761104a6108f8565b5b813561105b848260208601610fcd565b91505092915050565b60006020828403121561107a5761107961085a565b5b600082013567ffffffffffffffff8111156110985761109761085f565b5b6110a484828501611036565b91505092915050565b600067ffffffffffffffff8211156110c8576110c7610a94565b5b602082029050602081019050919050565b6000602082840312156110ef576110ee610b3b565b5b6110f96020610af4565b90506000611109848285016108e3565b60008301525092915050565b6000611128611123846110ad565b610af4565b9050808382526020820190506020840283018581111561114b5761114a610902565b5b835b81811015611174578061116088826110d9565b84526020840193505060208101905061114d565b5050509392505050565b600082601f830112611193576111926108f8565b5b81356111a3848260208601611115565b91505092915050565b6000602082840312156111c2576111c161085a565b5b600082013567ffffffffffffffff8111156111e0576111df61085f565b5b6111ec8482850161117e565b91505092915050565b600060608201905061120a6000830186610c8b565b6112176020830185610c8b565b61122460408301846109e5565b949350505050565b60008115159050919050565b6112418161122c565b811461124c57600080fd5b50565b60008151905061125e81611238565b92915050565b60006020828403121561127a5761127961085a565b5b60006112888482850161124f565b91505092915050565b600081905092915050565b60006112a782610d20565b6112b18185611291565b93506112c1818560208601610d3c565b80840191505092915050565b60006112d9828461129c565b91508190509291505056fea2646970667358221220a58783b4f27f45a30c69b5afb0cb6de4f039245b303ece78c858b3c38f0bc3cf64736f6c63430008140033","abi":[{"inputs":[{"internalType":"address","name":"target","type":"address"}],"name":"AddressEmptyCode","type":"error"},{"inputs":[{"internalType":"address","name":"account","type":"address"}],"name":"AddressInsufficientBalance","type":"error"},{"inputs":[],"name":"FailedInnerCall","type":"error"},{"inputs":[{"internalType":"address","name":"token","type":"address"}],"name":"SafeERC20FailedOperation","type":"error"},{"inputs":[],"name":"CALL_OPERATION","outputs":[{"internalType":"uint256","name":"","type":"uint256"}],"stateMutability":"view","type":"function"},{"inputs":[],"name":"CALL_VALUE","outputs":[{"internalType":"uint256","name":"","type":"uint256"}],"stateMutability":"view","type":"function"},{"inputs":[{"internalType":"uint256","name":"","type":"uint256"},{"internalType":"address","name":"account","type":"address"},{"internalType":"bytes","name":"additionalData","type":"bytes"}],"name":"onCreate","outputs":[],"stateMutability":"payable","type":"function"},{"inputs":[{"internalType":"uint256","name":"","type":"uint256"},{"internalType":"address","name":"account","type":"address"},{"internalType":"address","name":"claimer","type":"address"},{"internalType":"bytes","name":"additionalData","type":"bytes"}],"name":"onOpen","outputs":[],"stateMutability":"nonpayable","type":"function"},{"inputs":[{"internalType":"uint256","name":"","type":"uint256"},{"internalType":"address","name":"account","type":"address"},{"internalType":"bytes","name":"additionalData","type":"bytes"}],"name":"onRevoke","outputs":[],"stateMutability":"nonpayable","type":"function"}]}