{"address":"0x532C88424404a10A41A1a3bbD6016Aa0b27c909D","bytecode":"0x608060405234801561001057600080fd5b50610c21806100206000396000f3fe60806040526004361061004a5760003560e01c806315a3966f1461004f5780631d19868814610078578063c56d786e146100a3578063d3f43c78146100bf578063f37e724e146100ea575b600080fd5b34801561005b57600080fd5b5061007660048036038101906100719190610632565b610113565b005b34801561008457600080fd5b5061008d6102a5565b60405161009a91906106c9565b60405180910390f35b6100bd60048036038101906100b891906106e4565b6102aa565b005b3480156100cb57600080fd5b506100d461038f565b6040516100e191906106c9565b60405180910390f35b3480156100f657600080fd5b50610111600480360381019061010c91906106e4565b610394565b005b6000828281019061012491906108fc565b905060005b815181101561029c578573ffffffffffffffffffffffffffffffffffffffff166374420f4c83838151811061016157610160610945565b5b6020026020010151600001516000898987878151811061018457610183610945565b5b6020026020010151602001516040516024016101a293929190610983565b6040516020818303038152906040527f42842e0e000000000000000000000000000000000000000000000000000000007bffffffffffffffffffffffffffffffffffffffffffffffffffffffff19166020820180517bffffffffffffffffffffffffffffffffffffffffffffffffffffffff838183161783525050505060006040518563ffffffff1660e01b81526004016102409493929190610a39565b6000604051808303816000875af115801561025f573d6000803e3d6000fd5b505050506040513d6000823e3d601f19601f820116820180604052508101906102889190610b2b565b50808061029490610ba3565b915050610129565b50505050505050565b600081565b600082828101906102bb91906108fc565b905060005b8151811015610387578181815181106102dc576102db610945565b5b60200260200101516000015173ffffffffffffffffffffffffffffffffffffffff166323b872dd338785858151811061031857610317610945565b5b6020026020010151602001516040518463ffffffff1660e01b815260040161034293929190610983565b600060405180830381600087803b15801561035c57600080fd5b505af1158015610370573d6000803e3d6000fd5b50505050808061037f90610ba3565b9150506102c0565b505050505050565b600081565b600082828101906103a591906108fc565b905060005b815181101561051d578473ffffffffffffffffffffffffffffffffffffffff166374420f4c8383815181106103e2576103e1610945565b5b6020026020010151600001516000883387878151811061040557610404610945565b5b60200260200101516020015160405160240161042393929190610983565b6040516020818303038152906040527f42842e0e000000000000000000000000000000000000000000000000000000007bffffffffffffffffffffffffffffffffffffffffffffffffffffffff19166020820180517bffffffffffffffffffffffffffffffffffffffffffffffffffffffff838183161783525050505060006040518563ffffffff1660e01b81526004016104c19493929190610a39565b6000604051808303816000875af11580156104e0573d6000803e3d6000fd5b505050506040513d6000823e3d601f19601f820116820180604052508101906105099190610b2b565b50808061051590610ba3565b9150506103aa565b505050505050565b6000604051905090565b600080fd5b600080fd5b6000819050919050565b61054c81610539565b811461055757600080fd5b50565b60008135905061056981610543565b92915050565b600073ffffffffffffffffffffffffffffffffffffffff82169050919050565b600061059a8261056f565b9050919050565b6105aa8161058f565b81146105b557600080fd5b50565b6000813590506105c7816105a1565b92915050565b600080fd5b600080fd5b600080fd5b60008083601f8401126105f2576105f16105cd565b5b8235905067ffffffffffffffff81111561060f5761060e6105d2565b5b60208301915083600182028301111561062b5761062a6105d7565b5b9250929050565b60008060008060006080868803121561064e5761064d61052f565b5b600061065c8882890161055a565b955050602061066d888289016105b8565b945050604061067e888289016105b8565b935050606086013567ffffffffffffffff81111561069f5761069e610534565b5b6106ab888289016105dc565b92509250509295509295909350565b6106c381610539565b82525050565b60006020820190506106de60008301846106ba565b92915050565b600080600080606085870312156106fe576106fd61052f565b5b600061070c8782880161055a565b945050602061071d878288016105b8565b935050604085013567ffffffffffffffff81111561073e5761073d610534565b5b61074a878288016105dc565b925092505092959194509250565b6000601f19601f8301169050919050565b7f4e487b7100000000000000000000000000000000000000000000000000000000600052604160045260246000fd5b6107a182610758565b810181811067ffffffffffffffff821117156107c0576107bf610769565b5b80604052505050565b60006107d3610525565b90506107df8282610798565b919050565b600067ffffffffffffffff8211156107ff576107fe610769565b5b602082029050602081019050919050565b600080fd5b60006040828403121561082b5761082a610810565b5b61083560406107c9565b90506000610845848285016105b8565b60008301525060206108598482850161055a565b60208301525092915050565b6000610878610873846107e4565b6107c9565b9050808382526020820190506040840283018581111561089b5761089a6105d7565b5b835b818110156108c457806108b08882610815565b84526020840193505060408101905061089d565b5050509392505050565b600082601f8301126108e3576108e26105cd565b5b81356108f3848260208601610865565b91505092915050565b6000602082840312156109125761091161052f565b5b600082013567ffffffffffffffff8111156109305761092f610534565b5b61093c848285016108ce565b91505092915050565b7f4e487b7100000000000000000000000000000000000000000000000000000000600052603260045260246000fd5b61097d8161058f565b82525050565b60006060820190506109986000830186610974565b6109a56020830185610974565b6109b260408301846106ba565b949350505050565b600081519050919050565b600082825260208201905092915050565b60005b838110156109f45780820151818401526020810190506109d9565b60008484015250505050565b6000610a0b826109ba565b610a1581856109c5565b9350610a258185602086016109d6565b610a2e81610758565b840191505092915050565b6000608082019050610a4e6000830187610974565b610a5b60208301866106ba565b8181036040830152610a6d8185610a00565b9050610a7c60608301846106ba565b95945050505050565b600080fd5b600067ffffffffffffffff821115610aa557610aa4610769565b5b610aae82610758565b9050602081019050919050565b6000610ace610ac984610a8a565b6107c9565b905082815260208101848484011115610aea57610ae9610a85565b5b610af58482856109d6565b509392505050565b600082601f830112610b1257610b116105cd565b5b8151610b22848260208601610abb565b91505092915050565b600060208284031215610b4157610b4061052f565b5b600082015167ffffffffffffffff811115610b5f57610b5e610534565b5b610b6b84828501610afd565b91505092915050565b7f4e487b7100000000000000000000000000000000000000000000000000000000600052601160045260246000fd5b6000610bae82610539565b91507fffffffffffffffffffffffffffffffffffffffffffffffffffffffffffffffff8203610be057610bdf610b74565b5b60018201905091905056fea2646970667358221220029aa6db8f970e2f83966c492a86a8c8ba31e2221c606dd5b78248e548d9adc364736f6c63430008140033","abi":[{"inputs":[],"name":"CALL_OPERATION","outputs":[{"internalType":"uint256","name":"","type":"uint256"}],"stateMutability":"view","type":"function"},{"inputs":[],"name":"CALL_VALUE","outputs":[{"internalType":"uint256","name":"","type":"uint256"}],"stateMutability":"view","type":"function"},{"inputs":[{"internalType":"uint256","name":"","type":"uint256"},{"internalType":"address","name":"account","type":"address"},{"internalType":"bytes","name":"additionalData","type":"bytes"}],"name":"onCreate","outputs":[],"stateMutability":"payable","type":"function"},{"inputs":[{"internalType":"uint256","name":"","type":"uint256"},{"internalType":"address","name":"account","type":"address"},{"internalType":"address","name":"claimer","type":"address"},{"internalType":"bytes","name":"additionalData","type":"bytes"}],"name":"onOpen","outputs":[],"stateMutability":"nonpayable","type":"function"},{"inputs":[{"internalType":"uint256","name":"","type":"uint256"},{"internalType":"address","name":"account","type":"address"},{"internalType":"bytes","name":"additionalData","type":"bytes"}],"name":"onRevoke","outputs":[],"stateMutability":"nonpayable","type":"function"}]}