{"address":"0x5AEeDc64647270e8a84aDC95A532699F5A3F93B1","bytecode":"0x6101006040523480156200001257600080fd5b50604051620062b2380380620062b28339818101604052810190620000389190620008d7565b88888888818181600090816200004f919062000c73565b50806001908162000061919062000c73565b50505082600b908162000075919062000c73565b506040518060400160405280600781526020017f6372656174656400000000000000000000000000000000000000000000000000815250600d600060016003811115620000c757620000c662000d5a565b5b81526020019081526020016000209081620000e3919062000c73565b506040518060400160405280600681526020017f6f70656e65640000000000000000000000000000000000000000000000000000815250600d60006002600381111562000135576200013462000d5a565b5b8152602001908152602001600020908162000151919062000c73565b506040518060400160405280600781526020017f7265766f6b656400000000000000000000000000000000000000000000000000815250600d6000600380811115620001a257620001a162000d5a565b5b81526020019081526020016000209081620001be919062000c73565b50505050600073ffffffffffffffffffffffffffffffffffffffff168173ffffffffffffffffffffffffffffffffffffffff1603620002375760006040517f1e4fbdf70000000000000000000000000000000000000000000000000000000081526004016200022e919062000d9a565b60405180910390fd5b62000248816200038360201b60201c565b50600073ffffffffffffffffffffffffffffffffffffffff168573ffffffffffffffffffffffffffffffffffffffff161480620002b15750600073ffffffffffffffffffffffffffffffffffffffff168473ffffffffffffffffffffffffffffffffffffffff16145b15620002e9576040517fe6c4247b00000000000000000000000000000000000000000000000000000000815260040160405180910390fd5b8473ffffffffffffffffffffffffffffffffffffffff1660808173ffffffffffffffffffffffffffffffffffffffff16815250508373ffffffffffffffffffffffffffffffffffffffff1660a08173ffffffffffffffffffffffffffffffffffffffff16815250508260c081815250508160e08181525050620003748160016200044960201b60201c565b50505050505050505062000e62565b6000600f60009054906101000a900473ffffffffffffffffffffffffffffffffffffffff16905081600f60006101000a81548173ffffffffffffffffffffffffffffffffffffffff021916908373ffffffffffffffffffffffffffffffffffffffff1602179055508173ffffffffffffffffffffffffffffffffffffffff168173ffffffffffffffffffffffffffffffffffffffff167f8be0079c531659141344cd1fd0a4f28419497f9722a3daafe3b4186f6b6457e060405160405180910390a35050565b62000459620004f560201b60201c565b60005b8251811015620004f057816012600085848151811062000481576200048062000db7565b5b602002602001015173ffffffffffffffffffffffffffffffffffffffff1673ffffffffffffffffffffffffffffffffffffffff16815260200190815260200160002060006101000a81548160ff0219169083151502179055508080620004e79062000e15565b9150506200045c565b505050565b620005056200059760201b60201c565b73ffffffffffffffffffffffffffffffffffffffff166200052b6200059f60201b60201c565b73ffffffffffffffffffffffffffffffffffffffff16146200059557620005576200059760201b60201c565b6040517f118cdaa70000000000000000000000000000000000000000000000000000000081526004016200058c919062000d9a565b60405180910390fd5b565b600033905090565b6000600f60009054906101000a900473ffffffffffffffffffffffffffffffffffffffff16905090565b6000604051905090565b600080fd5b600080fd5b600073ffffffffffffffffffffffffffffffffffffffff82169050919050565b60006200060a82620005dd565b9050919050565b6200061c81620005fd565b81146200062857600080fd5b50565b6000815190506200063c8162000611565b92915050565b600080fd5b600080fd5b6000601f19601f8301169050919050565b7f4e487b7100000000000000000000000000000000000000000000000000000000600052604160045260246000fd5b62000697826200064c565b810181811067ffffffffffffffff82111715620006b957620006b86200065d565b5b80604052505050565b6000620006ce620005c9565b9050620006dc82826200068c565b919050565b600067ffffffffffffffff821115620006ff57620006fe6200065d565b5b6200070a826200064c565b9050602081019050919050565b60005b83811015620007375780820151818401526020810190506200071a565b60008484015250505050565b60006200075a6200075484620006e1565b620006c2565b90508281526020810184848401111562000779576200077862000647565b5b6200078684828562000717565b509392505050565b600082601f830112620007a657620007a562000642565b5b8151620007b884826020860162000743565b91505092915050565b6000819050919050565b620007d681620007c1565b8114620007e257600080fd5b50565b600081519050620007f681620007cb565b92915050565b600067ffffffffffffffff8211156200081a57620008196200065d565b5b602082029050602081019050919050565b600080fd5b6000620008476200084184620007fc565b620006c2565b905080838252602082019050602084028301858111156200086d576200086c6200082b565b5b835b818110156200089a57806200088588826200062b565b8452602084019350506020810190506200086f565b5050509392505050565b600082601f830112620008bc57620008bb62000642565b5b8151620008ce84826020860162000830565b91505092915050565b60008060008060008060008060006101208a8c031215620008fd57620008fc620005d3565b5b60006200090d8c828d016200062b565b99505060208a015167ffffffffffffffff811115620009315762000930620005d8565b5b6200093f8c828d016200078e565b98505060408a015167ffffffffffffffff811115620009635762000962620005d8565b5b620009718c828d016200078e565b97505060608a015167ffffffffffffffff811115620009955762000994620005d8565b5b620009a38c828d016200078e565b9650506080620009b68c828d016200062b565b95505060a0620009c98c828d016200062b565b94505060c0620009dc8c828d01620007e5565b93505060e0620009ef8c828d01620007e5565b9250506101008a015167ffffffffffffffff81111562000a145762000a13620005d8565b5b62000a228c828d01620008a4565b9150509295985092959850929598565b600081519050919050565b7f4e487b7100000000000000000000000000000000000000000000000000000000600052602260045260246000fd5b6000600282049050600182168062000a8557607f821691505b60208210810362000a9b5762000a9a62000a3d565b5b50919050565b60008190508160005260206000209050919050565b60006020601f8301049050919050565b600082821b905092915050565b60006008830262000b057fffffffffffffffffffffffffffffffffffffffffffffffffffffffffffffffff8262000ac6565b62000b11868362000ac6565b95508019841693508086168417925050509392505050565b6000819050919050565b600062000b5462000b4e62000b4884620007c1565b62000b29565b620007c1565b9050919050565b6000819050919050565b62000b708362000b33565b62000b8862000b7f8262000b5b565b84845462000ad3565b825550505050565b600090565b62000b9f62000b90565b62000bac81848462000b65565b505050565b5b8181101562000bd45762000bc860008262000b95565b60018101905062000bb2565b5050565b601f82111562000c235762000bed8162000aa1565b62000bf88462000ab6565b8101602085101562000c08578190505b62000c2062000c178562000ab6565b83018262000bb1565b50505b505050565b600082821c905092915050565b600062000c486000198460080262000c28565b1980831691505092915050565b600062000c63838362000c35565b9150826002028217905092915050565b62000c7e8262000a32565b67ffffffffffffffff81111562000c9a5762000c996200065d565b5b62000ca6825462000a6c565b62000cb382828562000bd8565b600060209050601f83116001811462000ceb576000841562000cd6578287015190505b62000ce2858262000c55565b86555062000d52565b601f19841662000cfb8662000aa1565b60005b8281101562000d255784890151825560018201915060208501945060208101905062000cfe565b8683101562000d45578489015162000d41601f89168262000c35565b8355505b6001600288020188555050505b505050505050565b7f4e487b7100000000000000000000000000000000000000000000000000000000600052602160045260246000fd5b62000d9481620005fd565b82525050565b600060208201905062000db1600083018462000d89565b92915050565b7f4e487b7100000000000000000000000000000000000000000000000000000000600052603260045260246000fd5b7f4e487b7100000000000000000000000000000000000000000000000000000000600052601160045260246000fd5b600062000e2282620007c1565b91507fffffffffffffffffffffffffffffffffffffffffffffffffffffffffffffffff820362000e575762000e5662000de6565b5b600182019050919050565b60805160a05160c05160e0516153d062000ee260003960008181610c89015281816114b0015281816118d5015261280f0152600081816109f301528181610c66015281816118b201526127ee015260008181610c45015281816111c90152611891015260008181610c09015281816112cd015261185501526153d06000f3fe60806040526004361061020f5760003560e01c806370a0823111610118578063bfa0b133116100a0578063d48c94a81161006f578063d48c94a814610823578063e985e9c514610854578063f2fde38b14610891578063fa757b9a146108ba578063ffa1ad74146108e35761020f565b8063bfa0b13314610753578063c26d20d31461077e578063c87b56dd146107bb578063d3f43c78146107f85761020f565b806395d89b41116100e757806395d89b4114610670578063a22cb4651461069b578063a25c4aef146106c4578063b2ddcab4146106ed578063b88d4fde1461072a5761020f565b806370a08231146105c6578063715018a6146106035780637b1039991461061a5780638da5cb5b146106455761020f565b80632dd7c6581161019b5780634f5e74c21161016a5780634f5e74c2146104bb5780634f6ccce7146104f85780635c184796146105355780635c60da1b1461055e5780636352211e146105895761020f565b80632dd7c658146103db5780632f745c59146104185780633664cd3f1461045557806342842e0e146104925761020f565b806318160ddd116101e257806318160ddd146102e257806318e3ab571461030d57806322e06ae01461033857806323b872dd14610375578063275e0a881461039e5761020f565b806301ffc9a71461021457806306fdde0314610251578063081812fc1461027c578063095ea7b3146102b9575b600080fd5b34801561022057600080fd5b5061023b60048036038101906102369190613c23565b61090e565b6040516102489190613c6b565b60405180910390f35b34801561025d57600080fd5b50610266610920565b6040516102739190613d16565b60405180910390f35b34801561028857600080fd5b506102a3600480360381019061029e9190613d6e565b6109b2565b6040516102b09190613ddc565b60405180910390f35b3480156102c557600080fd5b506102e060048036038101906102db9190613e23565b6109ce565b005b3480156102ee57600080fd5b506102f76109e4565b6040516103049190613e72565b60405180910390f35b34801561031957600080fd5b506103226109f1565b60405161032f9190613e72565b60405180910390f35b34801561034457600080fd5b5061035f600480360381019061035a9190613d6e565b610a15565b60405161036c9190613d16565b60405180910390f35b34801561038157600080fd5b5061039c60048036038101906103979190613e8d565b610ab5565b005b3480156103aa57600080fd5b506103c560048036038101906103c09190613ee0565b610bb7565b6040516103d29190613ddc565b60405180910390f35b3480156103e757600080fd5b5061040260048036038101906103fd9190613d6e565b610c05565b60405161040f9190613ddc565b60405180910390f35b34801561042457600080fd5b5061043f600480360381019061043a9190613e23565b610d10565b60405161044c9190613e72565b60405180910390f35b34801561046157600080fd5b5061047c60048036038101906104779190613d6e565b610db9565b6040516104899190613f97565b60405180910390f35b34801561049e57600080fd5b506104b960048036038101906104b49190613e8d565b610dd9565b005b3480156104c757600080fd5b506104e260048036038101906104dd9190613d6e565b610df9565b6040516104ef9190613e72565b60405180910390f35b34801561050457600080fd5b5061051f600480360381019061051a9190613d6e565b610e11565b60405161052c9190613e72565b60405180910390f35b34801561054157600080fd5b5061055c60048036038101906105579190614017565b610e87565b005b34801561056a57600080fd5b506105736111c7565b6040516105809190613ddc565b60405180910390f35b34801561059557600080fd5b506105b060048036038101906105ab9190613d6e565b6111eb565b6040516105bd9190613ddc565b60405180910390f35b3480156105d257600080fd5b506105ed60048036038101906105e89190614077565b6111fd565b6040516105fa9190613e72565b60405180910390f35b34801561060f57600080fd5b506106186112b7565b005b34801561062657600080fd5b5061062f6112cb565b60405161063c9190614103565b60405180910390f35b34801561065157600080fd5b5061065a6112ef565b6040516106679190613ddc565b60405180910390f35b34801561067c57600080fd5b50610685611319565b6040516106929190613d16565b60405180910390f35b3480156106a757600080fd5b506106c260048036038101906106bd919061414a565b6113ab565b005b3480156106d057600080fd5b506106eb60048036038101906106e691906142c8565b6113c1565b005b3480156106f957600080fd5b50610714600480360381019061070f9190613d6e565b61145e565b6040516107219190613ddc565b60405180910390f35b34801561073657600080fd5b50610751600480360381019061074c91906143d9565b611491565b005b34801561075f57600080fd5b506107686114ae565b6040516107759190613e72565b60405180910390f35b34801561078a57600080fd5b506107a560048036038101906107a09190614077565b6114d2565b6040516107b29190613c6b565b60405180910390f35b3480156107c757600080fd5b506107e260048036038101906107dd9190613d6e565b6114f2565b6040516107ef9190613d16565b60405180910390f35b34801561080457600080fd5b5061080d611641565b60405161081a9190613e72565b60405180910390f35b61083d600480360381019061083891906144b2565b611646565b60405161084b929190614559565b60405180910390f35b34801561086057600080fd5b5061087b60048036038101906108769190614582565b611b52565b6040516108889190613c6b565b60405180910390f35b34801561089d57600080fd5b506108b860048036038101906108b39190614077565b611be6565b005b3480156108c657600080fd5b506108e160048036038101906108dc91906146a4565b611c6c565b005b3480156108ef57600080fd5b506108f8611f02565b6040516109059190613e72565b60405180910390f35b600061091982611f07565b9050919050565b60606000805461092f9061474f565b80601f016020809104026020016040519081016040528092919081815260200182805461095b9061474f565b80156109a85780601f1061097d576101008083540402835291602001916109a8565b820191906000526020600020905b81548152906001019060200180831161098b57829003601f168201915b5050505050905090565b60006109bd82611f81565b506109c782612009565b9050919050565b6109e082826109db612046565b61204e565b5050565b6000600880549050905090565b7f000000000000000000000000000000000000000000000000000000000000000081565b600d6020528060005260406000206000915090508054610a349061474f565b80601f0160208091040260200160405190810160405280929190818152602001828054610a609061474f565b8015610aad5780601f10610a8257610100808354040283529160200191610aad565b820191906000526020600020905b815481529060010190602001808311610a9057829003601f168201915b505050505081565b600073ffffffffffffffffffffffffffffffffffffffff168273ffffffffffffffffffffffffffffffffffffffff1603610b275760006040517f64a0ae92000000000000000000000000000000000000000000000000000000008152600401610b1e9190613ddc565b60405180910390fd5b6000610b3b8383610b36612046565b612060565b90508373ffffffffffffffffffffffffffffffffffffffff168173ffffffffffffffffffffffffffffffffffffffff1614610bb1578382826040517f64283d7b000000000000000000000000000000000000000000000000000000008152600401610ba893929190614780565b60405180910390fd5b50505050565b60116020528160005260406000208181548110610bd357600080fd5b906000526020600020016000915091509054906101000a900473ffffffffffffffffffffffffffffffffffffffff1681565b60007f000000000000000000000000000000000000000000000000000000000000000073ffffffffffffffffffffffffffffffffffffffff16635e9bc5367f00000000000000000000000000000000000000000000000000000000000000007f000000000000000000000000000000000000000000000000000000000000000030867f00000000000000000000000000000000000000000000000000000000000000006040518663ffffffff1660e01b8152600401610cc89594939291906147b7565b602060405180830381865afa158015610ce5573d6000803e3d6000fd5b505050506040513d601f19601f82011682018060405250810190610d09919061481f565b9050919050565b6000610d1b836111fd565b8210610d605782826040517fa57d13dc000000000000000000000000000000000000000000000000000000008152600401610d5792919061484c565b60405180910390fd5b600660008473ffffffffffffffffffffffffffffffffffffffff1673ffffffffffffffffffffffffffffffffffffffff168152602001908152602001600020600083815260200190815260200160002054905092915050565b600c6020528060005260406000206000915054906101000a900460ff1681565b610df483838360405180602001604052806000815250611491565b505050565b600e6020528060005260406000206000915090505481565b6000610e1b6109e4565b8210610e61576000826040517fa57d13dc000000000000000000000000000000000000000000000000000000008152600401610e5892919061484c565b60405180910390fd5b60088281548110610e7557610e74614875565b5b90600052602060002001549050919050565b823373ffffffffffffffffffffffffffffffffffffffff16610ea8826111eb565b73ffffffffffffffffffffffffffffffffffffffff1614610f0057806040517fcd5e32e2000000000000000000000000000000000000000000000000000000008152600401610ef79190613e72565b60405180910390fd5b836001806003811115610f1657610f15613f20565b5b600c600084815260200190815260200160002060009054906101000a900460ff166003811115610f4957610f48613f20565b5b14610f8b57816040517ff7453f0b000000000000000000000000000000000000000000000000000000008152600401610f829190613e72565b60405180910390fd5b60116000878152602001908152602001600020805490508585905014611003576011600087815260200190815260200160002080549050858590506040517f4fb53a3c000000000000000000000000000000000000000000000000000000008152600401610ffa9291906148a4565b60405180910390fd5b61100c86612076565b600061101787610c05565b905060008173ffffffffffffffffffffffffffffffffffffffff163190506110408233836120be565b60005b601160008a81526020019081526020016000208054905081101561118457611170601160008b8152602001908152602001600020828154811061108957611088614875565b5b9060005260206000200160009054906101000a900473ffffffffffffffffffffffffffffffffffffffff168a858b8b868181106110c9576110c8614875565b5b90506020028101906110db91906148dc565b6040516024016110ee949392919061499e565b6040516020818303038152906040527ff37e724e000000000000000000000000000000000000000000000000000000007bffffffffffffffffffffffffffffffffffffffffffffffffffffffff19166020820180517bffffffffffffffffffffffffffffffffffffffffffffffffffffffff83818316178352505050506121e1565b50808061117c90614a0d565b915050611043565b50877f3ed29fb64fa945b8356199704a51c1da5e7717064a5848e693f31c84fc6c806e336040516111b59190613ddc565b60405180910390a25050505050505050565b7f000000000000000000000000000000000000000000000000000000000000000081565b60006111f682611f81565b9050919050565b60008073ffffffffffffffffffffffffffffffffffffffff168273ffffffffffffffffffffffffffffffffffffffff16036112705760006040517f89c62b640000000000000000000000000000000000000000000000000000000081526004016112679190613ddc565b60405180910390fd5b600360008373ffffffffffffffffffffffffffffffffffffffff1673ffffffffffffffffffffffffffffffffffffffff168152602001908152602001600020549050919050565b6112bf612265565b6112c960006122ec565b565b7f000000000000000000000000000000000000000000000000000000000000000081565b6000600f60009054906101000a900473ffffffffffffffffffffffffffffffffffffffff16905090565b6060600180546113289061474f565b80601f01602080910402602001604051908101604052809291908181526020018280546113549061474f565b80156113a15780601f10611376576101008083540402835291602001916113a1565b820191906000526020600020905b81548152906001019060200180831161138457829003601f168201915b5050505050905090565b6113bd6113b6612046565b83836123b2565b5050565b6113c9612265565b60005b82518110156114595781601260008584815181106113ed576113ec614875565b5b602002602001015173ffffffffffffffffffffffffffffffffffffffff1673ffffffffffffffffffffffffffffffffffffffff16815260200190815260200160002060006101000a81548160ff021916908315150217905550808061145190614a0d565b9150506113cc565b505050565b60106020528060005260406000206000915054906101000a900473ffffffffffffffffffffffffffffffffffffffff1681565b61149c848484610ab5565b6114a884848484612521565b50505050565b7f000000000000000000000000000000000000000000000000000000000000000081565b60126020528060005260406000206000915054906101000a900460ff1681565b60606000600c600084815260200190815260200160002060009054906101000a900460ff1690506000600d600083600381111561153257611531613f20565b5b8152602001908152602001600020805461154b9061474f565b80601f01602080910402602001604051908101604052809291908181526020018280546115779061474f565b80156115c45780601f10611599576101008083540402835291602001916115c4565b820191906000526020600020905b8154815290600101906020018083116115a757829003601f168201915b50505050509050600081511161160f576040517f08c379a000000000000000000000000000000000000000000000000000000000815260040161160690614aa1565b60405180910390fd5b6116176126d8565b81604051602001611629929190614afd565b60405160208183030381529060405292505050919050565b600081565b60008060005b86869050811015611746576012600088888481811061166e5761166d614875565b5b90506020020160208101906116839190614077565b73ffffffffffffffffffffffffffffffffffffffff1673ffffffffffffffffffffffffffffffffffffffff16815260200190815260200160002060009054906101000a900460ff16611733578686828181106116e2576116e1614875565b5b90506020020160208101906116f79190614077565b6040517f486c037400000000000000000000000000000000000000000000000000000000815260040161172a9190613ddc565b60405180910390fd5b808061173e90614a0d565b91505061164c565b508383905086869050146117995785859050848490506040517f4fb53a3c0000000000000000000000000000000000000000000000000000000081526004016117909291906148a4565b60405180910390fd5b600034036117d3576040517f715a6e9e00000000000000000000000000000000000000000000000000000000815260040160405180910390fd5b6117dc8861276a565b9150866010600084815260200190815260200160002060006101000a81548173ffffffffffffffffffffffffffffffffffffffff021916908373ffffffffffffffffffffffffffffffffffffffff1602179055508585601160008581526020019081526020016000209190611852929190613afa565b507f000000000000000000000000000000000000000000000000000000000000000073ffffffffffffffffffffffffffffffffffffffff1663da7323b37f00000000000000000000000000000000000000000000000000000000000000007f000000000000000000000000000000000000000000000000000000000000000030867f00000000000000000000000000000000000000000000000000000000000000006040518663ffffffff1660e01b8152600401611914959493929190614b47565b6020604051808303816000875af1158015611933573d6000803e3d6000fd5b505050506040513d601f19601f82011682018060405250810190611957919061481f565b905060008173ffffffffffffffffffffffffffffffffffffffff163460405161197f90614bdb565b60006040518083038185875af1925050503d80600081146119bc576040519150601f19603f3d011682016040523d82523d6000602084013e6119c1565b606091505b50509050806119fc576040517f6747a28800000000000000000000000000000000000000000000000000000000815260040160405180910390fd5b60005b87879050811015611b0557611af1888883818110611a2057611a1f614875565b5b9050602002016020810190611a359190614077565b8585898986818110611a4a57611a49614875565b5b9050602002810190611a5c91906148dc565b604051602401611a6f9493929190614bf0565b6040516020818303038152906040527fc56d786e000000000000000000000000000000000000000000000000000000007bffffffffffffffffffffffffffffffffffffffffffffffffffffffff19166020820180517bffffffffffffffffffffffffffffffffffffffffffffffffffffffff83818316178352505050506121e1565b508080611afd90614a0d565b9150506119ff565b50827fe271f0bfd48981060c91facb315d1aac41e5ef90698ffbc1e5886dbc6dd86ec58a89898989604051611b3e959493929190614e57565b60405180910390a250965096945050505050565b6000600560008473ffffffffffffffffffffffffffffffffffffffff1673ffffffffffffffffffffffffffffffffffffffff16815260200190815260200160002060008373ffffffffffffffffffffffffffffffffffffffff1673ffffffffffffffffffffffffffffffffffffffff16815260200190815260200160002060009054906101000a900460ff16905092915050565b611bee612265565b600073ffffffffffffffffffffffffffffffffffffffff168173ffffffffffffffffffffffffffffffffffffffff1603611c605760006040517f1e4fbdf7000000000000000000000000000000000000000000000000000000008152600401611c579190613ddc565b60405180910390fd5b611c69816122ec565b50565b82600001516001806003811115611c8657611c85613f20565b5b600c600084815260200190815260200160002060009054906101000a900460ff166003811115611cb957611cb8613f20565b5b14611cfb57816040517ff7453f0b000000000000000000000000000000000000000000000000000000008152600401611cf29190613e72565b60405180910390fd5b611d04856127e8565b8460a0015185608001511115611d46576040517f25fef44e00000000000000000000000000000000000000000000000000000000815260040160405180910390fd5b611d538560000151612870565b60005b601160008760000151815260200190815260200160002080549050811015611eb557611ea160116000886000015181526020019081526020016000208281548110611da457611da3614875565b5b9060005260206000200160009054906101000a900473ffffffffffffffffffffffffffffffffffffffff168760000151611de18960000151610c05565b8960400151898987818110611df957611df8614875565b5b9050602002810190611e0b91906148dc565b604051602401611e1f959493929190614ea0565b6040516020818303038152906040527f15a3966f000000000000000000000000000000000000000000000000000000007bffffffffffffffffffffffffffffffffffffffffffffffffffffffff19166020820180517bffffffffffffffffffffffffffffffffffffffffffffffffffffffff83818316178352505050506121e1565b508080611ead90614a0d565b915050611d56565b50611ebf856128af565b84600001517f86ed3e19f8d5b64492a8aa542a0268f79413b19b2f76dcff5b71469d603444e633604051611ef39190613ddc565b60405180910390a25050505050565b600181565b60007f780e9d63000000000000000000000000000000000000000000000000000000007bffffffffffffffffffffffffffffffffffffffffffffffffffffffff1916827bffffffffffffffffffffffffffffffffffffffffffffffffffffffff19161480611f7a5750611f79826128ff565b5b9050919050565b600080611f8d836129e1565b9050600073ffffffffffffffffffffffffffffffffffffffff168173ffffffffffffffffffffffffffffffffffffffff160361200057826040517f7e273289000000000000000000000000000000000000000000000000000000008152600401611ff79190613e72565b60405180910390fd5b80915050919050565b60006004600083815260200190815260200160002060009054906101000a900473ffffffffffffffffffffffffffffffffffffffff169050919050565b600033905090565b61205b8383836001612a1e565b505050565b600061206d848484612be3565b90509392505050565b61207f81612d00565b6003600c600083815260200190815260200160002060006101000a81548160ff021916908360038111156120b6576120b5613f20565b5b021790555050565b600082826040516024016120d392919061484c565b6040516020818303038152906040527fa9059cbb000000000000000000000000000000000000000000000000000000007bffffffffffffffffffffffffffffffffffffffffffffffffffffffff19166020820180517bffffffffffffffffffffffffffffffffffffffffffffffffffffffff838183161783525050505090508373ffffffffffffffffffffffffffffffffffffffff166374420f4c84848460006040518563ffffffff1660e01b81526004016121929493929190614f32565b6000604051808303816000875af11580156121b1573d6000803e3d6000fd5b505050506040513d6000823e3d601f19601f820116820180604052508101906121da9190614fee565b5050505050565b60606000808473ffffffffffffffffffffffffffffffffffffffff168460405161220b9190615068565b600060405180830381855af49150503d8060008114612246576040519150601f19603f3d011682016040523d82523d6000602084013e61224b565b606091505b509150915061225b858383612d86565b9250505092915050565b61226d612046565b73ffffffffffffffffffffffffffffffffffffffff1661228b6112ef565b73ffffffffffffffffffffffffffffffffffffffff16146122ea576122ae612046565b6040517f118cdaa70000000000000000000000000000000000000000000000000000000081526004016122e19190613ddc565b60405180910390fd5b565b6000600f60009054906101000a900473ffffffffffffffffffffffffffffffffffffffff16905081600f60006101000a81548173ffffffffffffffffffffffffffffffffffffffff021916908373ffffffffffffffffffffffffffffffffffffffff1602179055508173ffffffffffffffffffffffffffffffffffffffff168173ffffffffffffffffffffffffffffffffffffffff167f8be0079c531659141344cd1fd0a4f28419497f9722a3daafe3b4186f6b6457e060405160405180910390a35050565b600073ffffffffffffffffffffffffffffffffffffffff168273ffffffffffffffffffffffffffffffffffffffff160361242357816040517f5b08ba1800000000000000000000000000000000000000000000000000000000815260040161241a9190613ddc565b60405180910390fd5b80600560008573ffffffffffffffffffffffffffffffffffffffff1673ffffffffffffffffffffffffffffffffffffffff16815260200190815260200160002060008473ffffffffffffffffffffffffffffffffffffffff1673ffffffffffffffffffffffffffffffffffffffff16815260200190815260200160002060006101000a81548160ff0219169083151502179055508173ffffffffffffffffffffffffffffffffffffffff168373ffffffffffffffffffffffffffffffffffffffff167f17307eab39ab6107e8899845ad3d59bd9653f200f220920489ca2b5937696c31836040516125149190613c6b565b60405180910390a3505050565b60008373ffffffffffffffffffffffffffffffffffffffff163b11156126d2578273ffffffffffffffffffffffffffffffffffffffff1663150b7a02612565612046565b8685856040518563ffffffff1660e01b8152600401612587949392919061507f565b6020604051808303816000875af19250505080156125c357506040513d601f19601f820116820180604052508101906125c091906150e0565b60015b612647573d80600081146125f3576040519150601f19603f3d011682016040523d82523d6000602084013e6125f8565b606091505b50600081510361263f57836040517f64a0ae920000000000000000000000000000000000000000000000000000000081526004016126369190613ddc565b60405180910390fd5b805181602001fd5b63150b7a0260e01b7bffffffffffffffffffffffffffffffffffffffffffffffffffffffff1916817bffffffffffffffffffffffffffffffffffffffffffffffffffffffff1916146126d057836040517f64a0ae920000000000000000000000000000000000000000000000000000000081526004016126c79190613ddc565b60405180910390fd5b505b50505050565b6060600b80546126e79061474f565b80601f01602080910402602001604051908101604052809291908181526020018280546127139061474f565b80156127605780601f1061273557610100808354040283529160200191612760565b820191906000526020600020905b81548152906001019060200180831161274357829003601f168201915b5050505050905090565b6000600a600081548092919061277f90614a0d565b91905055905061278f8282612e15565b6001600c600083815260200190815260200160002060006101000a81548160ff021916908360038111156127c6576127c5613f20565b5b021790555043600e600083815260200190815260200160002081905550919050565b61286c817f00000000000000000000000000000000000000000000000000000000000000007f000000000000000000000000000000000000000000000000000000000000000030601060008760000151815260200190815260200160002060009054906101000a900473ffffffffffffffffffffffffffffffffffffffff16612e33565b5050565b6002600c600083815260200190815260200160002060006101000a81548160ff021916908360038111156128a7576128a6613f20565b5b021790555050565b60006128be8260000151610c05565b90506128cf813384608001516120be565b60008173ffffffffffffffffffffffffffffffffffffffff163190506128fa828460400151836120be565b505050565b60007f80ac58cd000000000000000000000000000000000000000000000000000000007bffffffffffffffffffffffffffffffffffffffffffffffffffffffff1916827bffffffffffffffffffffffffffffffffffffffffffffffffffffffff191614806129ca57507f5b5e139f000000000000000000000000000000000000000000000000000000007bffffffffffffffffffffffffffffffffffffffffffffffffffffffff1916827bffffffffffffffffffffffffffffffffffffffffffffffffffffffff1916145b806129da57506129d982612f57565b5b9050919050565b60006002600083815260200190815260200160002060009054906101000a900473ffffffffffffffffffffffffffffffffffffffff169050919050565b8080612a575750600073ffffffffffffffffffffffffffffffffffffffff168273ffffffffffffffffffffffffffffffffffffffff1614155b15612b8b576000612a6784611f81565b9050600073ffffffffffffffffffffffffffffffffffffffff168373ffffffffffffffffffffffffffffffffffffffff1614158015612ad257508273ffffffffffffffffffffffffffffffffffffffff168173ffffffffffffffffffffffffffffffffffffffff1614155b8015612ae55750612ae38184611b52565b155b15612b2757826040517fa9fbf51f000000000000000000000000000000000000000000000000000000008152600401612b1e9190613ddc565b60405180910390fd5b8115612b8957838573ffffffffffffffffffffffffffffffffffffffff168273ffffffffffffffffffffffffffffffffffffffff167f8c5be1e5ebec7d5bd14f71427d1e84f3dd0314c0f7b2291e5b200ac8c7c3b92560405160405180910390a45b505b836004600085815260200190815260200160002060006101000a81548173ffffffffffffffffffffffffffffffffffffffff021916908373ffffffffffffffffffffffffffffffffffffffff16021790555050505050565b600080612bf1858585612fc1565b9050600073ffffffffffffffffffffffffffffffffffffffff168173ffffffffffffffffffffffffffffffffffffffff1603612c3557612c30846131db565b612c74565b8473ffffffffffffffffffffffffffffffffffffffff168173ffffffffffffffffffffffffffffffffffffffff1614612c7357612c728185613224565b5b5b600073ffffffffffffffffffffffffffffffffffffffff168573ffffffffffffffffffffffffffffffffffffffff1603612cb657612cb184613385565b612cf5565b8473ffffffffffffffffffffffffffffffffffffffff168173ffffffffffffffffffffffffffffffffffffffff1614612cf457612cf38585613456565b5b5b809150509392505050565b6000612d0f6000836000612060565b9050600073ffffffffffffffffffffffffffffffffffffffff168173ffffffffffffffffffffffffffffffffffffffff1603612d8257816040517f7e273289000000000000000000000000000000000000000000000000000000008152600401612d799190613e72565b60405180910390fd5b5050565b606082612d9b57612d96826134e1565b612e0d565b60008251148015612dc3575060008473ffffffffffffffffffffffffffffffffffffffff163b145b15612e0557836040517f9996b315000000000000000000000000000000000000000000000000000000008152600401612dfc9190613ddc565b60405180910390fd5b819050612e0e565b5b9392505050565b612e2f828260405180602001604052806000815250613526565b5050565b600080612e7587600001518860400151888888604051602001612e5a959493929190615176565b60405160208183030381529060405280519060200120613542565b9050612e8683828960200151613578565b612ebc576040517f38a85a8d00000000000000000000000000000000000000000000000000000000815260040160405180910390fd5b6000612efd88600001518960a00151898989604051602001612ee29594939291906151d5565b60405160208183030381529060405280519060200120613542565b9050612f128860400151828a60600151613578565b612f48576040517f36ae61d500000000000000000000000000000000000000000000000000000000815260040160405180910390fd5b60019250505095945050505050565b60007f01ffc9a7000000000000000000000000000000000000000000000000000000007bffffffffffffffffffffffffffffffffffffffffffffffffffffffff1916827bffffffffffffffffffffffffffffffffffffffffffffffffffffffff1916149050919050565b600080612fcd846129e1565b9050600073ffffffffffffffffffffffffffffffffffffffff168373ffffffffffffffffffffffffffffffffffffffff161461300f5761300e818486613608565b5b600073ffffffffffffffffffffffffffffffffffffffff168173ffffffffffffffffffffffffffffffffffffffff16146130a057613051600085600080612a1e565b6001600360008373ffffffffffffffffffffffffffffffffffffffff1673ffffffffffffffffffffffffffffffffffffffff168152602001908152602001600020600082825403925050819055505b600073ffffffffffffffffffffffffffffffffffffffff168573ffffffffffffffffffffffffffffffffffffffff1614613123576001600360008773ffffffffffffffffffffffffffffffffffffffff1673ffffffffffffffffffffffffffffffffffffffff168152602001908152602001600020600082825401925050819055505b846002600086815260200190815260200160002060006101000a81548173ffffffffffffffffffffffffffffffffffffffff021916908373ffffffffffffffffffffffffffffffffffffffff160217905550838573ffffffffffffffffffffffffffffffffffffffff168273ffffffffffffffffffffffffffffffffffffffff167fddf252ad1be2c89b69c2b068fc378daa952ba7f163c4a11628f55a4df523b3ef60405160405180910390a4809150509392505050565b6008805490506009600083815260200190815260200160002081905550600881908060018154018082558091505060019003906000526020600020016000909190919091505550565b600061322f836111fd565b9050600060076000848152602001908152602001600020549050818114613314576000600660008673ffffffffffffffffffffffffffffffffffffffff1673ffffffffffffffffffffffffffffffffffffffff168152602001908152602001600020600084815260200190815260200160002054905080600660008773ffffffffffffffffffffffffffffffffffffffff1673ffffffffffffffffffffffffffffffffffffffff168152602001908152602001600020600084815260200190815260200160002081905550816007600083815260200190815260200160002081905550505b6007600084815260200190815260200160002060009055600660008573ffffffffffffffffffffffffffffffffffffffff1673ffffffffffffffffffffffffffffffffffffffff16815260200190815260200160002060008381526020019081526020016000206000905550505050565b600060016008805490506133999190615234565b90506000600960008481526020019081526020016000205490506000600883815481106133c9576133c8614875565b5b9060005260206000200154905080600883815481106133eb576133ea614875565b5b90600052602060002001819055508160096000838152602001908152602001600020819055506009600085815260200190815260200160002060009055600880548061343a57613439615268565b5b6001900381819060005260206000200160009055905550505050565b60006001613463846111fd565b61346d9190615234565b905081600660008573ffffffffffffffffffffffffffffffffffffffff1673ffffffffffffffffffffffffffffffffffffffff168152602001908152602001600020600083815260200190815260200160002081905550806007600084815260200190815260200160002081905550505050565b6000815111156134f45780518082602001fd5b6040517f1425ea4200000000000000000000000000000000000000000000000000000000815260040160405180910390fd5b61353083836136cc565b61353d6000848484612521565b505050565b60007f19457468657265756d205369676e6564204d6573736167653a0a33320000000060005281601c52603c6000209050919050565b600080600061358785856137c5565b5091509150600060038111156135a05761359f613f20565b5b8160038111156135b3576135b2613f20565b5b1480156135eb57508573ffffffffffffffffffffffffffffffffffffffff168273ffffffffffffffffffffffffffffffffffffffff16145b806135fd57506135fc868686613821565b5b925050509392505050565b613613838383613945565b6136c757600073ffffffffffffffffffffffffffffffffffffffff168373ffffffffffffffffffffffffffffffffffffffff160361368857806040517f7e27328900000000000000000000000000000000000000000000000000000000815260040161367f9190613e72565b60405180910390fd5b81816040517f177e802f0000000000000000000000000000000000000000000000000000000081526004016136be92919061484c565b60405180910390fd5b505050565b600073ffffffffffffffffffffffffffffffffffffffff168273ffffffffffffffffffffffffffffffffffffffff160361373e5760006040517f64a0ae920000000000000000000000000000000000000000000000000000000081526004016137359190613ddc565b60405180910390fd5b600061374c83836000612060565b9050600073ffffffffffffffffffffffffffffffffffffffff168173ffffffffffffffffffffffffffffffffffffffff16146137c05760006040517f73c6ac6e0000000000000000000000000000000000000000000000000000000081526004016137b79190613ddc565b60405180910390fd5b505050565b6000806000604184510361380a5760008060006020870151925060408701519150606087015160001a90506137fc88828585613a06565b95509550955050505061381a565b60006002855160001b9250925092505b9250925092565b60008060008573ffffffffffffffffffffffffffffffffffffffff1685856040516024016138509291906152b0565b604051602081830303815290604052631626ba7e60e01b6020820180517bffffffffffffffffffffffffffffffffffffffffffffffffffffffff83818316178352505050506040516138a29190615068565b600060405180830381855afa9150503d80600081146138dd576040519150601f19603f3d011682016040523d82523d6000602084013e6138e2565b606091505b50915091508180156138f657506020815110155b801561393a5750631626ba7e60e01b7bffffffffffffffffffffffffffffffffffffffffffffffffffffffff191681806020019051810190613938919061530c565b145b925050509392505050565b60008073ffffffffffffffffffffffffffffffffffffffff168373ffffffffffffffffffffffffffffffffffffffff16141580156139fd57508273ffffffffffffffffffffffffffffffffffffffff168473ffffffffffffffffffffffffffffffffffffffff1614806139be57506139bd8484611b52565b5b806139fc57508273ffffffffffffffffffffffffffffffffffffffff166139e483612009565b73ffffffffffffffffffffffffffffffffffffffff16145b5b90509392505050565b60008060007f7fffffffffffffffffffffffffffffff5d576e7357a4501ddfe92f46681b20a08460001c1115613a46576000600385925092509250613af0565b600060018888888860405160008152602001604052604051613a6b9493929190615355565b6020604051602081039080840390855afa158015613a8d573d6000803e3d6000fd5b505050602060405103519050600073ffffffffffffffffffffffffffffffffffffffff168173ffffffffffffffffffffffffffffffffffffffff1603613ae157600060016000801b93509350935050613af0565b8060008060001b935093509350505b9450945094915050565b828054828255906000526020600020908101928215613b89579160200282015b82811115613b8857823573ffffffffffffffffffffffffffffffffffffffff168260006101000a81548173ffffffffffffffffffffffffffffffffffffffff021916908373ffffffffffffffffffffffffffffffffffffffff16021790555091602001919060010190613b1a565b5b509050613b969190613b9a565b5090565b5b80821115613bb3576000816000905550600101613b9b565b5090565b6000604051905090565b600080fd5b600080fd5b60007fffffffff0000000000000000000000000000000000000000000000000000000082169050919050565b613c0081613bcb565b8114613c0b57600080fd5b50565b600081359050613c1d81613bf7565b92915050565b600060208284031215613c3957613c38613bc1565b5b6000613c4784828501613c0e565b91505092915050565b60008115159050919050565b613c6581613c50565b82525050565b6000602082019050613c806000830184613c5c565b92915050565b600081519050919050565b600082825260208201905092915050565b60005b83811015613cc0578082015181840152602081019050613ca5565b60008484015250505050565b6000601f19601f8301169050919050565b6000613ce882613c86565b613cf28185613c91565b9350613d02818560208601613ca2565b613d0b81613ccc565b840191505092915050565b60006020820190508181036000830152613d308184613cdd565b905092915050565b6000819050919050565b613d4b81613d38565b8114613d5657600080fd5b50565b600081359050613d6881613d42565b92915050565b600060208284031215613d8457613d83613bc1565b5b6000613d9284828501613d59565b91505092915050565b600073ffffffffffffffffffffffffffffffffffffffff82169050919050565b6000613dc682613d9b565b9050919050565b613dd681613dbb565b82525050565b6000602082019050613df16000830184613dcd565b92915050565b613e0081613dbb565b8114613e0b57600080fd5b50565b600081359050613e1d81613df7565b92915050565b60008060408385031215613e3a57613e39613bc1565b5b6000613e4885828601613e0e565b9250506020613e5985828601613d59565b9150509250929050565b613e6c81613d38565b82525050565b6000602082019050613e876000830184613e63565b92915050565b600080600060608486031215613ea657613ea5613bc1565b5b6000613eb486828701613e0e565b9350506020613ec586828701613e0e565b9250506040613ed686828701613d59565b9150509250925092565b60008060408385031215613ef757613ef6613bc1565b5b6000613f0585828601613d59565b9250506020613f1685828601613d59565b9150509250929050565b7f4e487b7100000000000000000000000000000000000000000000000000000000600052602160045260246000fd5b60048110613f6057613f5f613f20565b5b50565b6000819050613f7182613f4f565b919050565b6000613f8182613f63565b9050919050565b613f9181613f76565b82525050565b6000602082019050613fac6000830184613f88565b92915050565b600080fd5b600080fd5b600080fd5b60008083601f840112613fd757613fd6613fb2565b5b8235905067ffffffffffffffff811115613ff457613ff3613fb7565b5b6020830191508360208202830111156140105761400f613fbc565b5b9250929050565b6000806000604084860312156140305761402f613bc1565b5b600061403e86828701613d59565b935050602084013567ffffffffffffffff81111561405f5761405e613bc6565b5b61406b86828701613fc1565b92509250509250925092565b60006020828403121561408d5761408c613bc1565b5b600061409b84828501613e0e565b91505092915050565b6000819050919050565b60006140c96140c46140bf84613d9b565b6140a4565b613d9b565b9050919050565b60006140db826140ae565b9050919050565b60006140ed826140d0565b9050919050565b6140fd816140e2565b82525050565b600060208201905061411860008301846140f4565b92915050565b61412781613c50565b811461413257600080fd5b50565b6000813590506141448161411e565b92915050565b6000806040838503121561416157614160613bc1565b5b600061416f85828601613e0e565b925050602061418085828601614135565b9150509250929050565b7f4e487b7100000000000000000000000000000000000000000000000000000000600052604160045260246000fd5b6141c282613ccc565b810181811067ffffffffffffffff821117156141e1576141e061418a565b5b80604052505050565b60006141f4613bb7565b905061420082826141b9565b919050565b600067ffffffffffffffff8211156142205761421f61418a565b5b602082029050602081019050919050565b600061424461423f84614205565b6141ea565b9050808382526020820190506020840283018581111561426757614266613fbc565b5b835b81811015614290578061427c8882613e0e565b845260208401935050602081019050614269565b5050509392505050565b600082601f8301126142af576142ae613fb2565b5b81356142bf848260208601614231565b91505092915050565b600080604083850312156142df576142de613bc1565b5b600083013567ffffffffffffffff8111156142fd576142fc613bc6565b5b6143098582860161429a565b925050602061431a85828601614135565b9150509250929050565b600080fd5b600067ffffffffffffffff8211156143445761434361418a565b5b61434d82613ccc565b9050602081019050919050565b82818337600083830152505050565b600061437c61437784614329565b6141ea565b90508281526020810184848401111561439857614397614324565b5b6143a384828561435a565b509392505050565b600082601f8301126143c0576143bf613fb2565b5b81356143d0848260208601614369565b91505092915050565b600080600080608085870312156143f3576143f2613bc1565b5b600061440187828801613e0e565b945050602061441287828801613e0e565b935050604061442387828801613d59565b925050606085013567ffffffffffffffff81111561444457614443613bc6565b5b614450878288016143ab565b91505092959194509250565b60008083601f84011261447257614471613fb2565b5b8235905067ffffffffffffffff81111561448f5761448e613fb7565b5b6020830191508360208202830111156144ab576144aa613fbc565b5b9250929050565b600080600080600080608087890312156144cf576144ce613bc1565b5b60006144dd89828a01613e0e565b96505060206144ee89828a01613e0e565b955050604087013567ffffffffffffffff81111561450f5761450e613bc6565b5b61451b89828a0161445c565b9450945050606087013567ffffffffffffffff81111561453e5761453d613bc6565b5b61454a89828a01613fc1565b92509250509295509295509295565b600060408201905061456e6000830185613e63565b61457b6020830184613dcd565b9392505050565b6000806040838503121561459957614598613bc1565b5b60006145a785828601613e0e565b92505060206145b885828601613e0e565b9150509250929050565b600080fd5b600080fd5b600060c082840312156145e2576145e16145c2565b5b6145ec60c06141ea565b905060006145fc84828501613d59565b600083015250602082013567ffffffffffffffff8111156146205761461f6145c7565b5b61462c848285016143ab565b602083015250604061464084828501613e0e565b604083015250606082013567ffffffffffffffff811115614664576146636145c7565b5b614670848285016143ab565b606083015250608061468484828501613d59565b60808301525060a061469884828501613d59565b60a08301525092915050565b6000806000604084860312156146bd576146bc613bc1565b5b600084013567ffffffffffffffff8111156146db576146da613bc6565b5b6146e7868287016145cc565b935050602084013567ffffffffffffffff81111561470857614707613bc6565b5b61471486828701613fc1565b92509250509250925092565b7f4e487b7100000000000000000000000000000000000000000000000000000000600052602260045260246000fd5b6000600282049050600182168061476757607f821691505b60208210810361477a57614779614720565b5b50919050565b60006060820190506147956000830186613dcd565b6147a26020830185613e63565b6147af6040830184613dcd565b949350505050565b600060a0820190506147cc6000830188613dcd565b6147d96020830187613e63565b6147e66040830186613dcd565b6147f36060830185613e63565b6148006080830184613e63565b9695505050505050565b60008151905061481981613df7565b92915050565b60006020828403121561483557614834613bc1565b5b60006148438482850161480a565b91505092915050565b60006040820190506148616000830185613dcd565b61486e6020830184613e63565b9392505050565b7f4e487b7100000000000000000000000000000000000000000000000000000000600052603260045260246000fd5b60006040820190506148b96000830185613e63565b6148c66020830184613e63565b9392505050565b600080fd5b600080fd5b600080fd5b600080833560016020038436030381126148f9576148f86148cd565b5b80840192508235915067ffffffffffffffff82111561491b5761491a6148d2565b5b602083019250600182023603831315614937576149366148d7565b5b509250929050565b600061494a82613d9b565b9050919050565b61495a8161493f565b82525050565b600082825260208201905092915050565b600061497d8385614960565b935061498a83858461435a565b61499383613ccc565b840190509392505050565b60006060820190506149b36000830187613e63565b6149c06020830186614951565b81810360408301526149d3818486614971565b905095945050505050565b7f4e487b7100000000000000000000000000000000000000000000000000000000600052601160045260246000fd5b6000614a1882613d38565b91507fffffffffffffffffffffffffffffffffffffffffffffffffffffffffffffffff8203614a4a57614a496149de565b5b600182019050919050565b7f5061636b644d61696e3a20696e76616c69642073746174650000000000000000600082015250565b6000614a8b601883613c91565b9150614a9682614a55565b602082019050919050565b60006020820190508181036000830152614aba81614a7e565b9050919050565b600081905092915050565b6000614ad782613c86565b614ae18185614ac1565b9350614af1818560208601613ca2565b80840191505092915050565b6000614b098285614acc565b9150614b158284614acc565b91508190509392505050565b50565b6000614b31600083614960565b9150614b3c82614b21565b600082019050919050565b600060c082019050614b5c6000830188613dcd565b614b696020830187613e63565b614b766040830186613dcd565b614b836060830185613e63565b614b906080830184613e63565b81810360a0830152614ba181614b24565b90509695505050505050565b600081905092915050565b6000614bc5600083614bad565b9150614bd082614b21565b600082019050919050565b6000614be682614bb8565b9150819050919050565b6000606082019050614c056000830187613e63565b614c126020830186613dcd565b8181036040830152614c25818486614971565b905095945050505050565b600082825260208201905092915050565b6000819050919050565b614c5481613dbb565b82525050565b6000614c668383614c4b565b60208301905092915050565b6000614c816020840184613e0e565b905092915050565b6000602082019050919050565b6000614ca28385614c30565b9350614cad82614c41565b8060005b85811015614ce657614cc38284614c72565b614ccd8882614c5a565b9750614cd883614c89565b925050600181019050614cb1565b5085925050509392505050565b600082825260208201905092915050565b6000819050919050565b600082825260208201905092915050565b6000614d2b8385614d0e565b9350614d3883858461435a565b614d4183613ccc565b840190509392505050565b6000614d59848484614d1f565b90509392505050565b600080fd5b600080fd5b600080fd5b60008083356001602003843603038112614d8e57614d8d614d6c565b5b83810192508235915060208301925067ffffffffffffffff821115614db657614db5614d62565b5b600182023603831315614dcc57614dcb614d67565b5b509250929050565b6000602082019050919050565b6000614ded8385614cf3565b935083602084028501614dff84614d04565b8060005b87811015614e45578484038952614e1a8284614d71565b614e25868284614d4c565b9550614e3084614dd4565b935060208b019a505050600181019050614e03565b50829750879450505050509392505050565b6000606082019050614e6c6000830188613dcd565b8181036020830152614e7f818688614c96565b90508181036040830152614e94818486614de1565b90509695505050505050565b6000608082019050614eb56000830188613e63565b614ec26020830187613dcd565b614ecf6040830186613dcd565b8181036060830152614ee2818486614971565b90509695505050505050565b600081519050919050565b6000614f0482614eee565b614f0e8185614960565b9350614f1e818560208601613ca2565b614f2781613ccc565b840191505092915050565b6000608082019050614f476000830187613dcd565b614f546020830186613e63565b8181036040830152614f668185614ef9565b9050614f756060830184613e63565b95945050505050565b6000614f91614f8c84614329565b6141ea565b905082815260208101848484011115614fad57614fac614324565b5b614fb8848285613ca2565b509392505050565b600082601f830112614fd557614fd4613fb2565b5b8151614fe5848260208601614f7e565b91505092915050565b60006020828403121561500457615003613bc1565b5b600082015167ffffffffffffffff81111561502257615021613bc6565b5b61502e84828501614fc0565b91505092915050565b600061504282614eee565b61504c8185614bad565b935061505c818560208601613ca2565b80840191505092915050565b60006150748284615037565b915081905092915050565b60006080820190506150946000830187613dcd565b6150a16020830186613dcd565b6150ae6040830185613e63565b81810360608301526150c08184614ef9565b905095945050505050565b6000815190506150da81613bf7565b92915050565b6000602082840312156150f6576150f5613bc1565b5b6000615104848285016150cb565b91505092915050565b6000819050919050565b61512861512382613d38565b61510d565b82525050565b60008160601b9050919050565b60006151468261512e565b9050919050565b60006151588261513b565b9050919050565b61517061516b82613dbb565b61514d565b82525050565b60006151828288615117565b602082019150615192828761515f565b6014820191506151a28286615117565b6020820191506151b28285615117565b6020820191506151c2828461515f565b6014820191508190509695505050505050565b60006151e18288615117565b6020820191506151f18287615117565b6020820191506152018286615117565b6020820191506152118285615117565b602082019150615221828461515f565b6014820191508190509695505050505050565b600061523f82613d38565b915061524a83613d38565b9250828203905081811115615262576152616149de565b5b92915050565b7f4e487b7100000000000000000000000000000000000000000000000000000000600052603160045260246000fd5b6000819050919050565b6152aa81615297565b82525050565b60006040820190506152c560008301856152a1565b81810360208301526152d78184614ef9565b90509392505050565b6152e981615297565b81146152f457600080fd5b50565b600081519050615306816152e0565b92915050565b60006020828403121561532257615321613bc1565b5b6000615330848285016152f7565b91505092915050565b600060ff82169050919050565b61534f81615339565b82525050565b600060808201905061536a60008301876152a1565b6153776020830186615346565b61538460408301856152a1565b61539160608301846152a1565b9594505050505056fea2646970667358221220879f1892f6ac2b7cff23dbe62ff7d214cac75218f24445e892db9b3c4b7b4b3764736f6c63430008140033","abi":[{"inputs":[{"internalType":"address","name":"initialOwner_","type":"address"},{"internalType":"string","name":"baseTokenURI_","type":"string"},{"internalType":"string","name":"name_","type":"string"},{"internalType":"string","name":"symbol_","type":"string"},{"internalType":"address","name":"registry_","type":"address"},{"internalType":"address","name":"implementation_","type":"address"},{"internalType":"uint256","name":"registryChainId_","type":"uint256"},{"internalType":"uint256","name":"salt_","type":"uint256"},{"internalType":"address[]","name":"modulesWhitelist_","type":"address[]"}],"stateMutability":"nonpayable","type":"constructor"},{"inputs":[{"internalType":"address","name":"target","type":"address"}],"name":"AddressEmptyCode","type":"error"},{"inputs":[],"name":"ERC721EnumerableForbiddenBatchMint","type":"error"},{"inputs":[{"internalType":"address","name":"sender","type":"address"},{"internalType":"uint256","name":"tokenId","type":"uint256"},{"internalType":"address","name":"owner","type":"address"}],"name":"ERC721IncorrectOwner","type":"error"},{"inputs":[{"internalType":"address","name":"operator","type":"address"},{"internalType":"uint256","name":"tokenId","type":"uint256"}],"name":"ERC721InsufficientApproval","type":"error"},{"inputs":[{"internalType":"address","name":"approver","type":"address"}],"name":"ERC721InvalidApprover","type":"error"},{"inputs":[{"internalType":"address","name":"operator","type":"address"}],"name":"ERC721InvalidOperator","type":"error"},{"inputs":[{"internalType":"address","name":"owner","type":"address"}],"name":"ERC721InvalidOwner","type":"error"},{"inputs":[{"internalType":"address","name":"receiver","type":"address"}],"name":"ERC721InvalidReceiver","type":"error"},{"inputs":[{"internalType":"address","name":"sender","type":"address"}],"name":"ERC721InvalidSender","type":"error"},{"inputs":[{"internalType":"uint256","name":"tokenId","type":"uint256"}],"name":"ERC721NonexistentToken","type":"error"},{"inputs":[{"internalType":"address","name":"owner","type":"address"},{"internalType":"uint256","name":"index","type":"uint256"}],"name":"ERC721OutOfBoundsIndex","type":"error"},{"inputs":[],"name":"EtherTransferFailed","type":"error"},{"inputs":[],"name":"FailedInnerCall","type":"error"},{"inputs":[],"name":"InvalidAddress","type":"error"},{"inputs":[],"name":"InvalidClaimerSignature","type":"error"},{"inputs":[],"name":"InvalidEthValue","type":"error"},{"inputs":[{"internalType":"uint256","name":"modulesLength","type":"uint256"},{"internalType":"uint256","name":"moduleDataLength","type":"uint256"}],"name":"InvalidLengthOfData","type":"error"},{"inputs":[],"name":"InvalidOwnerSignature","type":"error"},{"inputs":[],"name":"InvalidRefundValue","type":"error"},{"inputs":[{"internalType":"address","name":"modules","type":"address"}],"name":"ModulesNotWhitelisted","type":"error"},{"inputs":[{"internalType":"uint256","name":"tokenId","type":"uint256"}],"name":"OnlyOwnerOf","type":"error"},{"inputs":[{"internalType":"address","name":"owner","type":"address"}],"name":"OwnableInvalidOwner","type":"error"},{"inputs":[{"internalType":"address","name":"account","type":"address"}],"name":"OwnableUnauthorizedAccount","type":"error"},{"inputs":[{"internalType":"uint256","name":"tokenId","type":"uint256"}],"name":"TokenNotInExpectedState","type":"error"},{"anonymous":false,"inputs":[{"indexed":true,"internalType":"address","name":"owner","type":"address"},{"indexed":true,"internalType":"address","name":"approved","type":"address"},{"indexed":true,"internalType":"uint256","name":"tokenId","type":"uint256"}],"name":"Approval","type":"event"},{"anonymous":false,"inputs":[{"indexed":true,"internalType":"address","name":"owner","type":"address"},{"indexed":true,"internalType":"address","name":"operator","type":"address"},{"indexed":false,"internalType":"bool","name":"approved","type":"bool"}],"name":"ApprovalForAll","type":"event"},{"anonymous":false,"inputs":[{"indexed":true,"internalType":"address","name":"previousOwner","type":"address"},{"indexed":true,"internalType":"address","name":"newOwner","type":"address"}],"name":"OwnershipTransferred","type":"event"},{"anonymous":false,"inputs":[{"indexed":true,"internalType":"uint256","name":"tokenId","type":"uint256"},{"indexed":false,"internalType":"address","name":"owner","type":"address"},{"indexed":false,"internalType":"address[]","name":"modules","type":"address[]"},{"indexed":false,"internalType":"bytes[]","name":"moduleData","type":"bytes[]"}],"name":"PackCreated","type":"event"},{"anonymous":false,"inputs":[{"indexed":true,"internalType":"uint256","name":"tokenId","type":"uint256"},{"indexed":false,"internalType":"address","name":"claimer","type":"address"}],"name":"PackOpened","type":"event"},{"anonymous":false,"inputs":[{"indexed":true,"internalType":"uint256","name":"tokenId","type":"uint256"},{"indexed":false,"internalType":"address","name":"owner","type":"address"}],"name":"PackRevoked","type":"event"},{"anonymous":false,"inputs":[{"indexed":true,"internalType":"address","name":"from","type":"address"},{"indexed":true,"internalType":"address","name":"to","type":"address"},{"indexed":true,"internalType":"uint256","name":"tokenId","type":"uint256"}],"name":"Transfer","type":"event"},{"inputs":[],"name":"CALL_OPERATION","outputs":[{"internalType":"uint256","name":"","type":"uint256"}],"stateMutability":"view","type":"function"},{"inputs":[],"name":"VERSION","outputs":[{"internalType":"uint256","name":"","type":"uint256"}],"stateMutability":"view","type":"function"},{"inputs":[{"internalType":"uint256","name":"tokenId","type":"uint256"}],"name":"account","outputs":[{"internalType":"address","name":"","type":"address"}],"stateMutability":"view","type":"function"},{"inputs":[{"internalType":"address","name":"to","type":"address"},{"internalType":"uint256","name":"tokenId","type":"uint256"}],"name":"approve","outputs":[],"stateMutability":"nonpayable","type":"function"},{"inputs":[{"internalType":"address","name":"owner","type":"address"}],"name":"balanceOf","outputs":[{"internalType":"uint256","name":"","type":"uint256"}],"stateMutability":"view","type":"function"},{"inputs":[{"internalType":"uint256","name":"","type":"uint256"}],"name":"claimPublicKey","outputs":[{"internalType":"address","name":"","type":"address"}],"stateMutability":"view","type":"function"},{"inputs":[{"internalType":"uint256","name":"","type":"uint256"}],"name":"creationBlock","outputs":[{"internalType":"uint256","name":"","type":"uint256"}],"stateMutability":"view","type":"function"},{"inputs":[{"internalType":"uint256","name":"tokenId","type":"uint256"}],"name":"getApproved","outputs":[{"internalType":"address","name":"","type":"address"}],"stateMutability":"view","type":"function"},{"inputs":[],"name":"implementation","outputs":[{"internalType":"address","name":"","type":"address"}],"stateMutability":"view","type":"function"},{"inputs":[{"internalType":"address","name":"owner","type":"address"},{"internalType":"address","name":"operator","type":"address"}],"name":"isApprovedForAll","outputs":[{"internalType":"bool","name":"","type":"bool"}],"stateMutability":"view","type":"function"},{"inputs":[{"internalType":"address","name":"","type":"address"}],"name":"modulesWhitelist","outputs":[{"internalType":"bool","name":"","type":"bool"}],"stateMutability":"view","type":"function"},{"inputs":[],"name":"name","outputs":[{"internalType":"string","name":"","type":"string"}],"stateMutability":"view","type":"function"},{"inputs":[{"components":[{"internalType":"uint256","name":"tokenId","type":"uint256"},{"internalType":"bytes","name":"sigOwner","type":"bytes"},{"internalType":"address","name":"claimer","type":"address"},{"internalType":"bytes","name":"sigClaimer","type":"bytes"},{"internalType":"uint256","name":"refundValue","type":"uint256"},{"internalType":"uint256","name":"maxRefundValue","type":"uint256"}],"internalType":"struct ClaimData","name":"data","type":"tuple"},{"internalType":"bytes[]","name":"moduleData","type":"bytes[]"}],"name":"open","outputs":[],"stateMutability":"nonpayable","type":"function"},{"inputs":[],"name":"owner","outputs":[{"internalType":"address","name":"","type":"address"}],"stateMutability":"view","type":"function"},{"inputs":[{"internalType":"uint256","name":"tokenId","type":"uint256"}],"name":"ownerOf","outputs":[{"internalType":"address","name":"","type":"address"}],"stateMutability":"view","type":"function"},{"inputs":[{"internalType":"address","name":"to_","type":"address"},{"internalType":"address","name":"claimPublicKey_","type":"address"},{"internalType":"address[]","name":"modules","type":"address[]"},{"internalType":"bytes[]","name":"moduleData","type":"bytes[]"}],"name":"pack","outputs":[{"internalType":"uint256","name":"tokenId","type":"uint256"},{"internalType":"address","name":"newAccount","type":"address"}],"stateMutability":"payable","type":"function"},{"inputs":[{"internalType":"uint256","name":"","type":"uint256"},{"internalType":"uint256","name":"","type":"uint256"}],"name":"packModules","outputs":[{"internalType":"address","name":"","type":"address"}],"stateMutability":"view","type":"function"},{"inputs":[{"internalType":"uint256","name":"","type":"uint256"}],"name":"packState","outputs":[{"internalType":"enum PackNFT.PackState","name":"","type":"uint8"}],"stateMutability":"view","type":"function"},{"inputs":[{"internalType":"uint256","name":"","type":"uint256"}],"name":"packStateURIs","outputs":[{"internalType":"string","name":"","type":"string"}],"stateMutability":"view","type":"function"},{"inputs":[],"name":"registry","outputs":[{"internalType":"contract IERC6551Registry","name":"","type":"address"}],"stateMutability":"view","type":"function"},{"inputs":[],"name":"registryChainId","outputs":[{"internalType":"uint256","name":"","type":"uint256"}],"stateMutability":"view","type":"function"},{"inputs":[],"name":"renounceOwnership","outputs":[],"stateMutability":"nonpayable","type":"function"},{"inputs":[{"internalType":"uint256","name":"tokenId_","type":"uint256"},{"internalType":"bytes[]","name":"moduleData","type":"bytes[]"}],"name":"revoke","outputs":[],"stateMutability":"nonpayable","type":"function"},{"inputs":[{"internalType":"address","name":"from","type":"address"},{"internalType":"address","name":"to","type":"address"},{"internalType":"uint256","name":"tokenId","type":"uint256"}],"name":"safeTransferFrom","outputs":[],"stateMutability":"nonpayable","type":"function"},{"inputs":[{"internalType":"address","name":"from","type":"address"},{"internalType":"address","name":"to","type":"address"},{"internalType":"uint256","name":"tokenId","type":"uint256"},{"internalType":"bytes","name":"data","type":"bytes"}],"name":"safeTransferFrom","outputs":[],"stateMutability":"nonpayable","type":"function"},{"inputs":[],"name":"salt","outputs":[{"internalType":"uint256","name":"","type":"uint256"}],"stateMutability":"view","type":"function"},{"inputs":[{"internalType":"address","name":"operator","type":"address"},{"internalType":"bool","name":"approved","type":"bool"}],"name":"setApprovalForAll","outputs":[],"stateMutability":"nonpayable","type":"function"},{"inputs":[{"internalType":"address[]","name":"modules","type":"address[]"},{"internalType":"bool","name":"value","type":"bool"}],"name":"setModulesWhitelist","outputs":[],"stateMutability":"nonpayable","type":"function"},{"inputs":[{"internalType":"bytes4","name":"interfaceId","type":"bytes4"}],"name":"supportsInterface","outputs":[{"internalType":"bool","name":"","type":"bool"}],"stateMutability":"view","type":"function"},{"inputs":[],"name":"symbol","outputs":[{"internalType":"string","name":"","type":"string"}],"stateMutability":"view","type":"function"},{"inputs":[{"internalType":"uint256","name":"index","type":"uint256"}],"name":"tokenByIndex","outputs":[{"internalType":"uint256","name":"","type":"uint256"}],"stateMutability":"view","type":"function"},{"inputs":[{"internalType":"address","name":"owner","type":"address"},{"internalType":"uint256","name":"index","type":"uint256"}],"name":"tokenOfOwnerByIndex","outputs":[{"internalType":"uint256","name":"","type":"uint256"}],"stateMutability":"view","type":"function"},{"inputs":[{"internalType":"uint256","name":"tokenId","type":"uint256"}],"name":"tokenURI","outputs":[{"internalType":"string","name":"","type":"string"}],"stateMutability":"view","type":"function"},{"inputs":[],"name":"totalSupply","outputs":[{"internalType":"uint256","name":"","type":"uint256"}],"stateMutability":"view","type":"function"},{"inputs":[{"internalType":"address","name":"from","type":"address"},{"internalType":"address","name":"to","type":"address"},{"internalType":"uint256","name":"tokenId","type":"uint256"}],"name":"transferFrom","outputs":[],"stateMutability":"nonpayable","type":"function"},{"inputs":[{"internalType":"address","name":"newOwner","type":"address"}],"name":"transferOwnership","outputs":[],"stateMutability":"nonpayable","type":"function"}]}